:10000000202000200901000005010000050100007A
:1000100000000000000000000000000000000000E0
:1000200000000000000000000000000005010000CA
:1000300000000000000000000501000005010000B4
:100040000501000005010000050100000501000098
:100050000501000005010000050100000501000088
:100060000501000005010000050100000501000078
:100070000501000005010000050100000501000068
:100080000501000005010000050100000501000058
:100090000501000005010000050100000501000048
:1000A0000501000005010000050100000501000038
:1000B00005010000050100000501000010B5064C17
:1000C0002378002B07D1054B002B02D0044800E019
:1000D00000BF0123237010BD0000002000000000BD
:1000E0002C030000044B10B5002B03D00349044837
:1000F00000E000BF10BDC04600000000040000206A
:100100002C030000FEE700001349144810B581429B
:100110000AD0134BC41E0022A34203D303331A1A7E
:10012000920892000F4B98470F48104BC11E0022B7
:10013000994203D803331A1A9208920000210C4BFB
:100140009847FF220B4B93430B4A93600B4B984706
:100150000B4B9847FEE7C0462C0300000000002030
:1001600000000020E9020000000000201C00002028
:10017000FB0200000000000000ED00E0A102000012
:100180002D02000002220C4B1A7509325A75073AEB
:1001900099691142FCD101219A6992080A42FBD166
:1001A000072201219A75DA6812090A42FBD08021E0
:1001B0001A7D0A431A75704700100040704700000E
:1001C000084B10B55A685A60074B9847074B984739
:1001D000074B9847074B9847FF20074B9847074B1B
:1001E000984710BD004000416102000085010000F9
:1001F00001020000BD0100000D02000085020000A8
:100200000122014B1A71704700080040C30706D550
:10021000034A044B1A62044A59681142FCD17047E0
:1002200006010100001C0040FD070000094B10B54D
:10023000984782218022C9050B68120213430B6084
:1002400005490B6813430B60044B013B002BFCD1A9
:10025000F7E7C046950200001C00004150C30000B3
:10026000F821044B4901DA690A40DA6101221A6176
:100270007047C0460014004010B5014B984710BDB0
:10028000C101000090220221D20513788B43137024
:100290007047000010B5014B984710BD790200006F
:1002A00070B500260C4D0D4C641BA410A64209D15C
:1002B000002600F02BF80A4D0A4C641BA410A6423D
:1002C00005D170BDB300EB5898470136EEE7B30097
:1002D000EB5898470136F2E71803000018030000B6
:1002E000180300001C030000002310B59A4200D13F
:1002F00010BDCC5CC4540133F8E70300821893426C
:1003000000D1704719700133F9E70000F8B5C04615
:10031000F8BC08BC9E467047E5000000F8B5C04632
:0C032000F8BC08BC9E467047BD00000001
:00000001FF
